{
  "_format": "hh-sol-artifact-1",
  "contractName": "CloudCraftEscrow",
  "sourceName": "contracts/CloudCraftEscrow.sol",
  "abi": [
    {
      "inputs": [
        {
          "internalType": "address",
          "name": "_cccTokenAddress",
          "type": "address"
        }
      ],
      "stateMutability": "nonpayable",
      "type": "constructor"
    },
    {
      "anonymous": false,
      "inputs": [
        {
          "indexed": true,
          "internalType": "address",
          "name": "node",
          "type": "address"
        },
        {
          "indexed": false,
          "internalType": "uint256",
          "name": "amount",
          "type": "uint256"
        }
      ],
      "name": "StakeSlashed",
      "type": "event"
    },
    {
      "anonymous": false,
      "inputs": [
        {
          "indexed": true,
          "internalType": "bytes32",
          "name": "taskId",
          "type": "bytes32"
        },
        {
          "indexed": true,
          "internalType": "address",
          "name": "node",
          "type": "address"
        }
      ],
      "name": "TaskAssigned",
      "type": "event"
    },
    {
      "anonymous": false,
      "inputs": [
        {
          "indexed": true,
          "internalType": "bytes32",
          "name": "taskId",
          "type": "bytes32"
        },
        {
          "indexed": true,
          "internalType": "address",
          "name": "node",
          "type": "address"
        },
        {
          "indexed": false,
          "internalType": "bytes32",
          "name": "computeHash",
          "type": "bytes32"
        }
      ],
      "name": "TaskCompleted",
      "type": "event"
    },
    {
      "anonymous": false,
      "inputs": [
        {
          "indexed": true,
          "internalType": "bytes32",
          "name": "taskId",
          "type": "bytes32"
        },
        {
          "indexed": false,
          "internalType": "string",
          "name": "reason",
          "type": "string"
        }
      ],
      "name": "TaskFailed",
      "type": "event"
    },
    {
      "anonymous": false,
      "inputs": [
        {
          "indexed": true,
          "internalType": "bytes32",
          "name": "taskId",
          "type": "bytes32"
        },
        {
          "indexed": true,
          "internalType": "address",
          "name": "client",
          "type": "address"
        },
        {
          "indexed": false,
          "internalType": "uint256",
          "name": "reward",
          "type": "uint256"
        },
        {
          "indexed": false,
          "internalType": "uint256",
          "name": "requiredStake",
          "type": "uint256"
        }
      ],
      "name": "TaskPosted",
      "type": "event"
    },
    {
      "inputs": [
        {
          "internalType": "bytes32",
          "name": "taskId",
          "type": "bytes32"
        }
      ],
      "name": "acceptTask",
      "outputs": [],
      "stateMutability": "nonpayable",
      "type": "function"
    },
    {
      "inputs": [],
      "name": "cccToken",
      "outputs": [
        {
          "internalType": "contract ICloudCraftCoin",
          "name": "",
          "type": "address"
        }
      ],
      "stateMutability": "view",
      "type": "function"
    },
    {
      "inputs": [
        {
          "internalType": "address",
          "name": "",
          "type": "address"
        }
      ],
      "name": "nodeReputation",
      "outputs": [
        {
          "internalType": "uint256",
          "name": "",
          "type": "uint256"
        }
      ],
      "stateMutability": "view",
      "type": "function"
    },
    {
      "inputs": [],
      "name": "owner",
      "outputs": [
        {
          "internalType": "address",
          "name": "",
          "type": "address"
        }
      ],
      "stateMutability": "view",
      "type": "function"
    },
    {
      "inputs": [
        {
          "internalType": "bytes32",
          "name": "taskId",
          "type": "bytes32"
        }
      ],
      "name": "penalizeTimeout",
      "outputs": [],
      "stateMutability": "nonpayable",
      "type": "function"
    },
    {
      "inputs": [
        {
          "internalType": "bytes32",
          "name": "taskId",
          "type": "bytes32"
        },
        {
          "internalType": "uint256",
          "name": "reward",
          "type": "uint256"
        },
        {
          "internalType": "uint256",
          "name": "requiredStake",
          "type": "uint256"
        },
        {
          "internalType": "uint256",
          "name": "maxExecutionTime",
          "type": "uint256"
        },
        {
          "internalType": "bytes32",
          "name": "taskHashRequirement",
          "type": "bytes32"
        }
      ],
      "name": "postTask",
      "outputs": [],
      "stateMutability": "nonpayable",
      "type": "function"
    },
    {
      "inputs": [
        {
          "internalType": "bytes32",
          "name": "taskId",
          "type": "bytes32"
        },
        {
          "internalType": "bytes32",
          "name": "computeHash",
          "type": "bytes32"
        }
      ],
      "name": "submitResult",
      "outputs": [],
      "stateMutability": "nonpayable",
      "type": "function"
    },
    {
      "inputs": [
        {
          "internalType": "bytes32",
          "name": "",
          "type": "bytes32"
        }
      ],
      "name": "tasks",
      "outputs": [
        {
          "internalType": "address",
          "name": "client",
          "type": "address"
        },
        {
          "internalType": "address",
          "name": "assignedNode",
          "type": "address"
        },
        {
          "internalType": "uint256",
          "name": "reward",
          "type": "uint256"
        },
        {
          "internalType": "uint256",
          "name": "requiredStake",
          "type": "uint256"
        },
        {
          "internalType": "uint256",
          "name": "maxExecutionTime",
          "type": "uint256"
        },
        {
          "internalType": "uint256",
          "name": "startTime",
          "type": "uint256"
        },
        {
          "internalType": "bytes32",
          "name": "taskHashRequirement",
          "type": "bytes32"
        },
        {
          "internalType": "enum CloudCraftEscrow.TaskState",
          "name": "state",
          "type": "uint8"
        }
      ],
      "stateMutability": "view",
      "type": "function"
    }
  ],
  "bytecode": "0x60806040523480156200001157600080fd5b50604051620020aa380380620020aa833981810160405281019062000037919062000129565b33600160006101000a81548173ffffffffffffffffffffffffffffffffffffffff021916908373ffffffffffffffffffffffffffffffffffffffff160217905550806000806101000a81548173ffffffffffffffffffffffffffffffffffffffff021916908373ffffffffffffffffffffffffffffffffffffffff160217905550506200015b565b600080fd5b600073ffffffffffffffffffffffffffffffffffffffff82169050919050565b6000620000f182620000c4565b9050919050565b6200010381620000e4565b81146200010f57600080fd5b50565b6000815190506200012381620000f8565b92915050565b600060208284031215620001425762000141620000bf565b5b6000620001528482850162000112565b91505092915050565b611f3f806200016b6000396000f3fe608060405234801561001057600080fd5b50600436106100885760003560e01c8063c199ada01161005b578063c199ada014610101578063d91e92411461011d578063e1b0877314610139578063e579f5001461016957610088565b80634ca75d3d1461008d5780636a92626d146100a957806370e4de62146100c55780638da5cb5b146100e3575b600080fd5b6100a760048036038101906100a291906112e8565b6101a0565b005b6100c360048036038101906100be9190611363565b6104fd565b005b6100cd6108f7565b6040516100da919061140f565b60405180910390f35b6100eb61091b565b6040516100f8919061144b565b60405180910390f35b61011b60048036038101906101169190611363565b610941565b005b61013760048036038101906101329190611466565b610b74565b005b610153600480360381019061014e91906114d2565b610d77565b604051610160919061150e565b60405180910390f35b610183600480360381019061017e9190611363565b610d8f565b6040516101979897969594939291906115af565b60405180910390f35b600073ffffffffffffffffffffffffffffffffffffffff166002600087815260200190815260200160002060000160009054906101000a900473ffffffffffffffffffffffffffffffffffffffff1673ffffffffffffffffffffffffffffffffffffffff1614610245576040517f08c379a000000000000000000000000000000000000000000000000000000000815260040161023c9061168a565b60405180910390fd5b60008054906101000a900473ffffffffffffffffffffffffffffffffffffffff1673ffffffffffffffffffffffffffffffffffffffff166323b872dd3330876040518463ffffffff1660e01b81526004016102a2939291906116aa565b6020604051808303816000875af11580156102c1573d6000803e3d6000fd5b505050506040513d601f19601f820116820180604052508101906102e59190611719565b610324576040517f08c379a000000000000000000000000000000000000000000000000000000000815260040161031b90611792565b60405180910390fd5b6040518061010001604052803373ffffffffffffffffffffffffffffffffffffffff168152602001600073ffffffffffffffffffffffffffffffffffffffff168152602001858152602001848152602001838152602001600081526020018281526020016000600481111561039c5761039b611538565b5b8152506002600087815260200190815260200160002060008201518160000160006101000a81548173ffffffffffffffffffffffffffffffffffffffff021916908373ffffffffffffffffffffffffffffffffffffffff16021790555060208201518160010160006101000a81548173ffffffffffffffffffffffffffffffffffffffff021916908373ffffffffffffffffffffffffffffffffffffffff16021790555060408201518160020155606082015181600301556080820151816004015560a0820151816005015560c0820151816006015560e08201518160070160006101000a81548160ff0219169083600481111561049d5761049c611538565b5b02179055509050503373ffffffffffffffffffffffffffffffffffffffff16857f679075687cd606890cff6df72a0f07947700d3c99bdaae02c4c091cf7fa2f9bb86866040516104ee9291906117b2565b60405180910390a35050505050565b60006002600083815260200190815260200160002090506001600481111561052857610527611538565b5b8160070160009054906101000a900460ff16600481111561054c5761054b611538565b5b1461058c576040517f08c379a000000000000000000000000000000000000000000000000000000000815260040161058390611827565b60405180910390fd5b806004015481600501546105a09190611876565b42116105e1576040517f08c379a00000000000000000000000000000000000000000000000000000000081526004016105d8906118f6565b60405180910390fd5b60048160070160006101000a81548160ff0219169083600481111561060957610608611538565b5b021790555060006064600283600301546106239190611916565b61062d9190611987565b9050600081836003015461064191906119b8565b905060008054906101000a900473ffffffffffffffffffffffffffffffffffffffff1673ffffffffffffffffffffffffffffffffffffffff1663a9059cbb8460010160009054906101000a900473ffffffffffffffffffffffffffffffffffffffff16836040518363ffffffff1660e01b81526004016106c29291906119ec565b6020604051808303816000875af11580156106e1573d6000803e3d6000fd5b505050506040513d601f19601f820116820180604052508101906107059190611719565b610744576040517f08c379a000000000000000000000000000000000000000000000000000000000815260040161073b90611a61565b60405180910390fd5b60008054906101000a900473ffffffffffffffffffffffffffffffffffffffff1673ffffffffffffffffffffffffffffffffffffffff1663a9059cbb8460000160009054906101000a900473ffffffffffffffffffffffffffffffffffffffff1685600201546040518363ffffffff1660e01b81526004016107c79291906119ec565b6020604051808303816000875af11580156107e6573d6000803e3d6000fd5b505050506040513d601f19601f8201168201806040525081019061080a9190611719565b610849576040517f08c379a000000000000000000000000000000000000000000000000000000000815260040161084090611acd565b60405180910390fd5b8260010160009054906101000a900473ffffffffffffffffffffffffffffffffffffffff1673ffffffffffffffffffffffffffffffffffffffff167f83f5ea8bea7627d95274e94dd7e9e3d7e82cb55feab513ed49e325232dcc61e0836040516108b3919061150e565b60405180910390a2837f1a3db277d344bf39313b85a095944f4e83a9010f1d35de39a99110aac3dca3b36040516108e990611b39565b60405180910390a250505050565b60008054906101000a900473ffffffffffffffffffffffffffffffffffffffff1681565b600160009054906101000a900473ffffffffffffffffffffffffffffffffffffffff1681565b60006002600083815260200190815260200160002090506000600481111561096c5761096b611538565b5b8160070160009054906101000a900460ff1660048111156109905761098f611538565b5b146109d0576040517f08c379a00000000000000000000000000000000000000000000000000000000081526004016109c790611ba5565b60405180910390fd5b60008054906101000a900473ffffffffffffffffffffffffffffffffffffffff1673ffffffffffffffffffffffffffffffffffffffff166323b872dd333084600301546040518463ffffffff1660e01b8152600401610a31939291906116aa565b6020604051808303816000875af1158015610a50573d6000803e3d6000fd5b505050506040513d601f19601f82011682018060405250810190610a749190611719565b610ab3576040517f08c379a0000000000000000000000000000000000000000000000000000000008152600401610aaa90611c11565b60405180910390fd5b338160010160006101000a81548173ffffffffffffffffffffffffffffffffffffffff021916908373ffffffffffffffffffffffffffffffffffffffff16021790555042816005018190555060018160070160006101000a81548160ff02191690836004811115610b2757610b26611538565b5b02179055503373ffffffffffffffffffffffffffffffffffffffff16827f9e52208b5745fde8bba93b2b82f2390bd6e1ddca033f03af60a09378d8f8275360405160405180910390a35050565b600060026000848152602001908152602001600020905060016004811115610b9f57610b9e611538565b5b8160070160009054906101000a900460ff166004811115610bc357610bc2611538565b5b14610c03576040517f08c379a0000000000000000000000000000000000000000000000000000000008152600401610bfa90611c7d565b60405180910390fd5b3373ffffffffffffffffffffffffffffffffffffffff168160010160009054906101000a900473ffffffffffffffffffffffffffffffffffffffff1673ffffffffffffffffffffffffffffffffffffffff1614610c95576040517f08c379a0000000000000000000000000000000000000000000000000000000008152600401610c8c90611ce9565b60405180910390fd5b80600401548160050154610ca99190611876565b421115610ceb576040517f08c379a0000000000000000000000000000000000000000000000000000000008152600401610ce290611d55565b60405180910390fd5b60028160070160006101000a81548160ff02191690836004811115610d1357610d12611538565b5b021790555080600601548203610d3257610d2d8383610e24565b610d72565b610d71836040518060400160405280601e81526020017f496e76616c696420636f6d707574652068617368207375626d69747465640000815250611075565b5b505050565b60036020528060005260406000206000915090505481565b60026020528060005260406000206000915090508060000160009054906101000a900473ffffffffffffffffffffffffffffffffffffffff16908060010160009054906101000a900473ffffffffffffffffffffffffffffffffffffffff16908060020154908060030154908060040154908060050154908060060154908060070160009054906101000a900460ff16905088565b600060026000848152602001908152602001600020905060038160070160006101000a81548160ff02191690836004811115610e6357610e62611538565b5b02179055506001600360008360010160009054906101000a900473ffffffffffffffffffffffffffffffffffffffff1673ffffffffffffffffffffffffffffffffffffffff1673ffffffffffffffffffffffffffffffffffffffff1681526020019081526020016000206000828254610edc9190611876565b92505081905550600081600301548260020154610ef99190611876565b905060008054906101000a900473ffffffffffffffffffffffffffffffffffffffff1673ffffffffffffffffffffffffffffffffffffffff1663a9059cbb8360010160009054906101000a900473ffffffffffffffffffffffffffffffffffffffff16836040518363ffffffff1660e01b8152600401610f7a9291906119ec565b6020604051808303816000875af1158015610f99573d6000803e3d6000fd5b505050506040513d601f19601f82011682018060405250810190610fbd9190611719565b610ffc576040517f08c379a0000000000000000000000000000000000000000000000000000000008152600401610ff390611dc1565b60405180910390fd5b8160010160009054906101000a900473ffffffffffffffffffffffffffffffffffffffff1673ffffffffffffffffffffffffffffffffffffffff16847f81e656cd7372c2f4a02d4a74b8f479972c23fa8e8af36747b80a7f1be9d849c8856040516110679190611de1565b60405180910390a350505050565b600060026000848152602001908152602001600020905060048160070160006101000a81548160ff021916908360048111156110b4576110b3611538565b5b021790555060008160030154905060008054906101000a900473ffffffffffffffffffffffffffffffffffffffff1673ffffffffffffffffffffffffffffffffffffffff1663a9059cbb8360000160009054906101000a900473ffffffffffffffffffffffffffffffffffffffff1684600201546040518363ffffffff1660e01b81526004016111459291906119ec565b6020604051808303816000875af1158015611164573d6000803e3d6000fd5b505050506040513d601f19601f820116820180604052508101906111889190611719565b6111c7576040517f08c379a00000000000000000000000000000000000000000000000000000000081526004016111be90611e48565b60405180910390fd5b8160010160009054906101000a900473ffffffffffffffffffffffffffffffffffffffff1673ffffffffffffffffffffffffffffffffffffffff167f83f5ea8bea7627d95274e94dd7e9e3d7e82cb55feab513ed49e325232dcc61e082604051611231919061150e565b60405180910390a2837f1a3db277d344bf39313b85a095944f4e83a9010f1d35de39a99110aac3dca3b3846040516112699190611ee7565b60405180910390a250505050565b600080fd5b6000819050919050565b61128f8161127c565b811461129a57600080fd5b50565b6000813590506112ac81611286565b92915050565b6000819050919050565b6112c5816112b2565b81146112d057600080fd5b50565b6000813590506112e2816112bc565b92915050565b600080600080600060a0868803121561130457611303611277565b5b60006113128882890161129d565b9550506020611323888289016112d3565b9450506040611334888289016112d3565b9350506060611345888289016112d3565b92505060806113568882890161129d565b9150509295509295909350565b60006020828403121561137957611378611277565b5b60006113878482850161129d565b91505092915050565b600073ffffffffffffffffffffffffffffffffffffffff82169050919050565b6000819050919050565b60006113d56113d06113cb84611390565b6113b0565b611390565b9050919050565b60006113e7826113ba565b9050919050565b60006113f9826113dc565b9050919050565b611409816113ee565b82525050565b60006020820190506114246000830184611400565b92915050565b600061143582611390565b9050919050565b6114458161142a565b82525050565b6000602082019050611460600083018461143c565b92915050565b6000806040838503121561147d5761147c611277565b5b600061148b8582860161129d565b925050602061149c8582860161129d565b9150509250929050565b6114af8161142a565b81146114ba57600080fd5b50565b6000813590506114cc816114a6565b92915050565b6000602082840312156114e8576114e7611277565b5b60006114f6848285016114bd565b91505092915050565b611508816112b2565b82525050565b600060208201905061152360008301846114ff565b92915050565b6115328161127c565b82525050565b7f4e487b7100000000000000000000000000000000000000000000000000000000600052602160045260246000fd5b6005811061157857611577611538565b5b50565b600081905061158982611567565b919050565b60006115998261157b565b9050919050565b6115a98161158e565b82525050565b6000610100820190506115c5600083018b61143c565b6115d2602083018a61143c565b6115df60408301896114ff565b6115ec60608301886114ff565b6115f960808301876114ff565b61160660a08301866114ff565b61161360c0830185611529565b61162060e08301846115a0565b9998505050505050505050565b600082825260208201905092915050565b7f5461736b20616c72656164792065786973747300000000000000000000000000600082015250565b600061167460138361162d565b915061167f8261163e565b602082019050919050565b600060208201905081810360008301526116a381611667565b9050919050565b60006060820190506116bf600083018661143c565b6116cc602083018561143c565b6116d960408301846114ff565b949350505050565b60008115159050919050565b6116f6816116e1565b811461170157600080fd5b50565b600081519050611713816116ed565b92915050565b60006020828403121561172f5761172e611277565b5b600061173d84828501611704565b91505092915050565b7f526577617264207472616e73666572206661696c656400000000000000000000600082015250565b600061177c60168361162d565b915061178782611746565b602082019050919050565b600060208201905081810360008301526117ab8161176f565b9050919050565b60006040820190506117c760008301856114ff565b6117d460208301846114ff565b9392505050565b7f4e6f7420696e2061737369676e65642073746174650000000000000000000000600082015250565b600061181160158361162d565b915061181c826117db565b602082019050919050565b6000602082019050818103600083015261184081611804565b9050919050565b7f4e487b7100000000000000000000000000000000000000000000000000000000600052601160045260246000fd5b6000611881826112b2565b915061188c836112b2565b92508282019050808211156118a4576118a3611847565b5b92915050565b7f457865637574696f6e2074696d65206e6f742065787069726564207965740000600082015250565b60006118e0601e8361162d565b91506118eb826118aa565b602082019050919050565b6000602082019050818103600083015261190f816118d3565b9050919050565b6000611921826112b2565b915061192c836112b2565b925082820261193a816112b2565b9150828204841483151761195157611950611847565b5b5092915050565b7f4e487b7100000000000000000000000000000000000000000000000000000000600052601260045260246000fd5b6000611992826112b2565b915061199d836112b2565b9250826119ad576119ac611958565b5b828204905092915050565b60006119c3826112b2565b91506119ce836112b2565b92508282039050818111156119e6576119e5611847565b5b92915050565b6000604082019050611a01600083018561143c565b611a0e60208301846114ff565b9392505050565b7f5374616b6520726566756e64206661696c656400000000000000000000000000600082015250565b6000611a4b60138361162d565b9150611a5682611a15565b602082019050919050565b60006020820190508181036000830152611a7a81611a3e565b9050919050565b7f52657761726420726566756e64206661696c6564000000000000000000000000600082015250565b6000611ab760148361162d565b9150611ac282611a81565b602082019050919050565b60006020820190508181036000830152611ae681611aaa565b9050919050565b7f5461736b20657865637574696f6e2074696d6564206f75740000000000000000600082015250565b6000611b2360188361162d565b9150611b2e82611aed565b602082019050919050565b60006020820190508181036000830152611b5281611b16565b9050919050565b7f5461736b206e6f74206f70656e00000000000000000000000000000000000000600082015250565b6000611b8f600d8361162d565b9150611b9a82611b59565b602082019050919050565b60006020820190508181036000830152611bbe81611b82565b9050919050565b7f5374616b65207472616e73666572206661696c65640000000000000000000000600082015250565b6000611bfb60158361162d565b9150611c0682611bc5565b602082019050919050565b60006020820190508181036000830152611c2a81611bee565b9050919050565b7f5461736b206e6f742061737369676e6564000000000000000000000000000000600082015250565b6000611c6760118361162d565b9150611c7282611c31565b602082019050919050565b60006020820190508181036000830152611c9681611c5a565b9050919050565b7f4e6f742061737369676e6564206e6f6465000000000000000000000000000000600082015250565b6000611cd360118361162d565b9150611cde82611c9d565b602082019050919050565b60006020820190508181036000830152611d0281611cc6565b9050919050565b7f5461736b2074696d652065787069726564000000000000000000000000000000600082015250565b6000611d3f60118361162d565b9150611d4a82611d09565b602082019050919050565b60006020820190508181036000830152611d6e81611d32565b9050919050565b7f5472616e73666572206661696c65640000000000000000000000000000000000600082015250565b6000611dab600f8361162d565b9150611db682611d75565b602082019050919050565b60006020820190508181036000830152611dda81611d9e565b9050919050565b6000602082019050611df66000830184611529565b92915050565b7f526566756e64206661696c656400000000000000000000000000000000000000600082015250565b6000611e32600d8361162d565b9150611e3d82611dfc565b602082019050919050565b60006020820190508181036000830152611e6181611e25565b9050919050565b600081519050919050565b60005b83811015611e91578082015181840152602081019050611e76565b60008484015250505050565b6000601f19601f8301169050919050565b6000611eb982611e68565b611ec3818561162d565b9350611ed3818560208601611e73565b611edc81611e9d565b840191505092915050565b60006020820190508181036000830152611f018184611eae565b90509291505056fea264697066735822122059d41681e74a6545fbea49211d017e92ea31ed071ffd24d1c7c8a6b9bd34cea964736f6c63430008140033",
  "linkReferences": {},
  "deployedLinkReferences": {}
}